:1000000000000420B5020000DD020000DF02000055
:10001000E1020000E3020000E50200000000000031
:10002000000000000000000000000000E7020000E7
:10003000E902000000000000EB020000ED020000F9
:10004000EF020000EF020000E1180000EF020000E4
:10005000EF020000EF020000EF020000EF020000DC
:10006000EF020000EF020000EF020000EF020000CC
:10007000EF020000EF020000EF020000EF020000BC
:10008000EF020000EF020000EF020000EF020000AC
:10009000EF020000EF020000EF020000EF0200009C
:1000A000EF020000EF020000EF020000EF0200008C
:1000B000EF020000EF02000000000000000000005E
:1000C000EF020000EF020000EF020000EF0200006C
:1000D000EF020000CD170000EF020000EF02000069
:1000E000EF020000EF020000EF020000000000003D
:1000F00000000000EF02000000000000EF0200001E
:1001000000000000000000000000000000000000EF
:1001100000000000000000000000000000000000DF
:1001200000000000000000000000000000000000CF
:1001300000000000000000000000000000000000BF
:1001400000000000000000000000000000000000AF
:10015000000000000000000000000000000000009F
:10016000000000000000000000000000000000008F
:10017000000000000000000000000000000000007F
:10018000000000000000000000000000000000006F
:10019000000000000000000000000000000000005F
:1001A000000000000000000000000000000000004F
:1001B000000000000000000000000000000000003F
:1001C000000000000000000000000000000000002F
:1001D000000000000000000000000000000000001F
:1001E000000000000000000000000000000000000F
:1001F00000000000000000000000000000000000FF
:1002000010B5054C237833B9044B13B10448AFF350
:1002100000800123237010BDB05D032000000000AA
:10022000F83C020008B5034B1BB103490348AFF388
:10023000008008BD00000000B45D0320F83C02000F
:10024000154B002B08BF134B9D46A3F5803A0021A8
:100250008B460F461348144A121A17F0ACFC0F4B8A
:10026000002B00D098470E4B002B00D09847002061
:10027000002104000D000D48002802D00C48AFF307
:10028000008017F029FC2000290002F077F817F011
:10029000FDFB00BF0000080000000420000000007B
:1002A00000000000B05D03206C640320000000002B
:1002B000000000000649074A074B9B1A03DD043B78
:1002C000C858D050FBDC02F05BF9FFF7B9FF000023
:1002D000603D020000000020B05D0320FEE7FEE765
:1002E000FEE7FEE7FEE7FEE7FEE7FEE7FEE7FEE7E6
:1002F000704700BF00B583B0044B0093044A40230D
:1003000000F034F803B05DF804FB00BF15030000F3
:10031000D05D032002B32DE9F843114B114E8846FE
:10032000144643F0010903270025224608EB050186
:10033000002002F067F803461D444FF47A40E41AA7
:1003400023B9337833B1C847013F06D00123337056
:10035000002CEAD1BDE8F88370473770BDE8F88318
:10036000B0B40100CC5D0320704700BFF0B595B07C
:10037000002415460F4608461E4601F017F9384678
:1003800023460895082205A91A9D09960D950A94F9
:100390008DF82C400C9401F06DF99DF814308DF817
:1003A0001140DDE9061003F00302012ACDE9020144
:1003B00027D0022A04D0384601F0FCF815B0F0BD71
:1003C000BDF81650C3F3C2038DF81030AD090826EE
:1003D000082D2C4628BF0824334622460EA938464D
:1003E00001F048F92D1B214608AB02AA0EA82644AD
:1003F00000F0AAFB002DEBD1384601F0DBF815B078
:10040000F0BDBDF81460059DC6F38316C3F3C204A6
:10041000B2000EA9384608238DF81040C5F3952583
:1004200001F028F908AB324628460EA9009302AB2A
:1004300000F014FB384601F0BDF815B0F0BD00BF68
:10044000704700BF00B583B0044B0093044A4023BB
:10045000FFF78CFF03B05DF804FB00BF65040000EC
:10046000145E032038B50E480E4D03780E4CEB5C3D
:100470000025D2B2257053B1043001F02BFF58B9DA
:100480000A4B1B7813B12378002BFCD038BD0C30FD
:1004900001F0A4FC0028F3D000F0D4FBF0E700BF8B
:1004A00000000020E0630320545E0320105E032060
:1004B00030B51448144A0378D35C89B0BBB104301A
:1004C00001F088FE114D0FCD6C460FC495E80F006A
:1004D000062584E80F00002269460A48009501F0CD
:1004E00031F940B90A4B00221A7009B030BD0C3006
:1004F00001F0F6FBE6E700F0A5FB054B00221A70C1
:1005000009B030BD00000020E0630320C4B4010046
:10051000105E0320A9B1124B12495B1ADB081AD0F6
:1005200030B4114C2288824217D0002203E034F804
:10053000225085420AD001329342F8D1002030BCCB
:100540007047084A02EBC0021068704701EBC20214
:10055000106830BC7047184670470A46F8E700BF7D
:10056000243D0200FC3C0200AC5D0320094B013934
:1005700003EBC00003290BD8DFE801F002080604F2
:100580000220704740797047007970470420704717
:1005900000207047FC3C02002DE9F047944CD4E960
:1005A00000239A4284B063D00023C4F81834BFF308
:1005B0004F8FD4E9013503EA0501CA1C04EB82061A
:1005C00014F82220500719D52768327802F0030268
:1005D000012A43D0022A03D17288023303EB92131B
:1005E00005EA0301D4F81804CA1C04EB820628B9F2
:1005F0009F4239D914F822205207E6D404EB810136
:100600005A1CC96801912A4004EB820201F00301DF
:10061000D2680292022903F102062DD0012900F0CE
:100620009080D4F810543DB12B6828469B689847B9
:10063000EB681D68002DF7D16E486F4B6F49C01AEB
:10064000C008000440F0020000F0DEF8D4E90030F9
:10065000C01A18BF012004B0BDE8F0873288023309
:10066000C2F383121344BBE7676004B0BDE8F087B0
:10067000002004B0BDE8F087BDF8063060484FEABE
:100680009319B9F1500FC84628BF4FF0500868F3CE
:100690008F1308F10801ADF8063000F03BFF074664
:1006A0000028BED025EA060A0AF1010A00F07EFF02
:1006B0004FEA8A0A0023082201A9384600F0A6FF63
:1006C000D04579D9BAF1000F00F0898005EA06011A
:1006D0000331A8EB0A0504EB810108235246384692
:1006E000EDB200F093FF2A460AF108034549384667
:1006F00000F08CFF09F1030906EB9909D4F81834CE
:10070000002B68D1D4F8105465B1EB685A792846AB
:100710003946002A5BD02B681B689847EB681D6838
:10072000002DF2D1384600F045FF002000F0D2FA4B
:10073000D4F818340BB9C4F80490002000F0D2FAB1
:1007400084E7BDF804202E48C2F38313062B28BF8C
:10075000062363F3891202339900ADF8042000F0F8
:10076000D9FE074600283FF45CAF00F01FFF0023CE
:10077000082201A9384600F049FFBDF8043013F4FF
:10078000707F33D04FF0000805EA06014FEA880376
:100790000331083304EB81010422384600F036FFB0
:1007A000BDF8043008F10108C3F3831306F1010911
:1007B00043454E46E8D8A1E705EA0601033104EBBC
:1007C000810142460823384600F020FF92E71D6869
:1007D000002D9AD1A6E7384600F0ECFE36E74246F7
:1007E00008230849384600F011FF83E7B14685E742
:1007F000285F03201C3D0200FC3C020014B50100F0
:10080000443D0200345F03202DE9F04F654C87B072
:10081000804600200191A56800F05CFAD4E901232C
:1008200026681A440132921B012A00F2B88004F2B1
:100830001C4704F214490121384600F067FA5A486F
:1008400000F07CFA484600F079FAD4E9013E03EA68
:100850000E00C21C04EB820114F8222012F00402E4
:1008600000F09A8003F1020C91F800B00BF0030B3A
:10087000BBF1010FE24600F08A80BBF1020F00F1EC
:10088000030B74D004EB8B01002AEDD104EB800044
:100890000133C268039203EA0E0304EB830302F000
:1008A0000302012AD9685AD0022A55D1BDF80E3068
:1008B0009B0903334FEA114B0AEB930A484600F0B9
:1008C00049FA5946002845D03846C4F804A000F03B
:1008D0001DFAD4E90113226819440131891A01294A
:1008E000A9D91340033302320521002044F8231014
:1008F000226000F0F7F900212C4800F0FDF980F3A8
:100900001000731C2B4004EB8303000435400335B7
:1009100040EA1840D86014F8253068F3C50304F89D
:100920002530019B54F8252063F39F2222F4717334
:1009300023F0030343F0010344F8252024F8253075
:1009400094F820341BB1FFF727FE0028FBD107B035
:10095000BDE8F08F3846BAE74FF0000BAEE7BDF8C0
:100960000C30C3F383134FEA114B9A44A6E74B882C
:100970000CEB93130EEA0300C11C03F1020C14F8F4
:100980002120E24604EB810102F004027CE70B889F
:10099000C3F383136344EDE703F1020A76E73246BB
:1009A0009FE700BF285F03204063032044630320C8
:1009B00038B5094BD3F81044012583F820544CB1C5
:1009C000E3685D71236820465B689847E3681C68AC
:1009D000002CF5D138BD00BF285F032030B5C38897
:1009E00083B004460D4613BB217A05291DD0637AD6
:1009F000A08873B9124B53F821400021FFF78AFDFC
:100A0000104903462246284603B0BDE8304000F0B6
:100A1000F5B9FFF7ABFD0C4B0C4953F820202846E5
:100A200000F0ECF9217AA088E4E703B030BD084A71
:100A300000920849084A284600F0E0F9D4E700BFD0
:100A4000A0B5010094B501002CB5010090B50100DE
:100A500088B5010070B5010068B501002DE9F043CB
:100A600085B01D460C9C002381460E46174694F81F
:100A70000C80237321462846FFF7B0FF062F09D8C4
:100A8000DFE807F0042E343B444F1F004946204660
:100A900000F0B4F92B7A052B05D06B7A5BB92749A6
:100AA000204600F0ABF9204600F09CF984F80C8059
:100AB00005B0BDE8F083224A2249204600F09EF9A5
:100AC000EDE7D6E90413F2680393B3680291CDE928
:100AD00000324946D6E90023204600F08FF9D9E7D5
:100AE00032684946204600F089F9D3E74946D6E9FD
:100AF0000023204600F082F9CCE7B3680093494612
:100B0000D6E90023204600F079F9C3E7D6E902329E
:100B1000019200934946D6E90023204600F06EF981
:100B2000B8E7D6E90321B3680291CDE9003249461E
:100B3000D6E90023204600F061F9ABE764B5010077
:100B400088B5010090B50100082900D970472DE94A
:100B5000F04F1D4683B000241B7B2C7307460E46C6
:100B60001046294691460193DFF8C8A0DFF8C880F7
:100B7000FFF734FF05E03A5D013400F03FF9082C3F
:100B800009D0A64241462846F5D85146013400F026
:100B900035F9082CF5D12249DFF8A0A0214CDFF867
:100BA000A080284600F02AF94FF0000B0EE012F862
:100BB000081011F0970F08BF2E22214628460BF18E
:100BC000010B00F01BF9BBF1080F10D05E4505D9F1
:100BD00017F80B207E2AEAD92E22EEE75146284646
:100BE0000BF1010B00F00AF9BBF1080FEED199F8F7
:100BF0000830052B02D099F809305BB90A4928461C
:100C000000F0FCF8284600F0EDF8019B2B7303B0D0
:100C1000BDE8F08F054A0649284600F0EFF8EDE7F9
:100C20005CB5010060B5010064B5010088B5010044
:100C300090B5010058B5010050B501009CB5010008
:100C40002739020000B585B000230390194601AA98
:100C500044F20100CDE9013300F004F805B05DF87D
:100C600004FB00BF10B572B6FFF7A2FEFFF794FCBD
:100C70000028FBD1104B114C1149E41AE40824045C
:100C800044F00100FFF7C0FD0E4B1B68DB0700D5E9
:100C900000BE44F002000C49FFF7B6FDBFF34F8FD2
:100CA0000A490B4BCA6802F4E0621343CB60BFF3FE
:100CB0004F8F00BFFDE700BFFC3C02001C3D02005F
:100CC00004B60100F0ED00E010B6010000ED00E018
:100CD0000400FA0572B6024A1368013313607047C4
:100CE0004C630320034A1368013B136003B962B6E7
:100CF000704700BF4C63032050E8002F0B4640E8CC
:100D0000003C9CF0000FF7D11046704750E8003FC0
:100D100003EB010240E8002C9CF0000FF6D11046D6
:100D2000704700BF50E8003FA3EB010240E8002CF1
:100D30009CF0000FF6D11046704700BF012350E829
:100D4000002F42EA030C40E800C191F0000FF6D1F9
:100D500060467047002350E800CF0CEA030240E8E9
:100D6000002191F0000FF6D16046704738B5044677
:100D70000020FFF7AFFFD4E900311A688A4215D985
:100D8000511E19602168A3680868258A12F8012C91
:100D9000E4681B1A0879DBB2984205FB024400D2D2
:100DA0000B710020FFF79EFF204638BD0024002075
:100DB000FFF798FF204638BD38B5054600200C46A1
:100DC000FFF788FF2A681368591C1160E9682A8AAE
:100DD000641AB4FBF2F41C700020BDE83840FFF741
:100DE00081BF00BF826842B110B504464369016803
:100DF000006998470023A36010BD70470EB400B58A
:100E000082B0039921B104AB01AA019300F08EF8DE
:100E100002B05DF804EB03B0704700BF2DE9F84F56
:100E200088469045164605461F46DDE90AB177D348
:100E300043464FF00109B3FBF6F39E4209F1010965
:100E4000F9D9B94538BFB94611F0010AAA6802D1EB
:100E5000BBF1000F45D1012402E0013F06FB04F481
:100E6000012FFAD8B8FBF4F18E42F7D92E4F07E0E4
:100E7000B442B4FBF6F315D3B8FBF3F1AA681C46F1
:100E8000531CAB602B68785C9854D5E901329A42C8
:100E900004FB1188ECD32846FFF7A4FFB4FBF6F35C
:100EA000B442E9D2BAF1000F15D0BBF1000F12D055
:100EB000CB4510D92024AB682A68591CA960D454AA
:100EC000D5E901329A420BF1FF3B06D2BBF1000F8C
:100ED00001D0CB45EFD1BDE8F88F2846FFF782FF60
:100EE000F4E78B0717D42024CB45B4D92B68511CC9
:100EF000A9609C54D5E901329A420BF1FF3B05D21F
:100F0000BBF1000FA7D0CB45F0D1A4E72846FFF7EF
:100F100069FFAA68F4E7002F0CBF30242024E3E720
:100F20004FF001098DE700BF20B60100002900F055
:100F300043822DE9F04F054683B093460C460B786B
:100F400001E0237893B1013483B1252B15D0AA6831
:100F50002968501CA8608B54D5E901329A42F0D31D
:100F60002846FFF73FFF2378002BECD12B7B002B8B
:100F700040F0198103B0BDE8F08F2146002711F839
:100F8000012B2D2A00F0E580302A00F0E6802B2A84
:100F900000F0D6802A2A00F0E480A2F13006F3B2F5
:100FA000092B03D904E2A3F130060146084606EBFB
:100FB000860310F8012BA2F13004092C02EB430345
:100FC000F1D92E2A00F0D9804FF0000802F0FB037F
:100FD000682B01F1010405D114F8012B02F0FB0389
:100FE000682BF9D0253A532AABD801A353F822F045
:100FF000CF110000430F0000430F0000430F00001B
:10100000430F0000430F0000430F0000430F000098
:10101000430F0000430F0000430F0000430F000088
:10102000430F0000430F0000430F0000430F000078
:10103000430F0000430F0000430F0000430F000068
:10104000430F0000430F0000430F0000430F000058
:10105000430F0000430F0000430F0000430F000048
:10106000430F0000430F0000430F0000430F000038
:10107000430F0000430F0000430F0000430F000028
:10108000430F0000430F0000430F0000430F000018
:10109000430F0000430F0000430F0000430F000008
:1010A000430F0000430F0000430F0000430F0000F8
:1010B000430F0000430F0000430F0000E911000040
:1010C000430F0000430F0000430F0000430F0000D8
:1010D000430F0000430F0000430F0000430F0000C8
:1010E000430F0000430F000005120000271200000C
:1010F000430F0000430F0000430F0000430F0000A8
:1011000027120000430F0000430F0000430F0000B0
:10111000430F0000430F0000430F0000B512000012
:10112000430F0000430F00002F130000430F000087
:10113000B3110000430F0000430F0000E91100004D
:1011400047F004070C46214611F8012B2D2A7FF4A5
:101150001BAF47F001070C46F5E747F002070C46C6
:10116000F1E7DBF800301A1DCBF8002062781E682A
:101170002E2A04F102007FF427AF4A78A2F130034F
:10118000092B01464FF000083FF620AF08EB880816
:1011900002EB480811F8012FA2F13003092BA8F146
:1011A0003008F3D912E7284603B0BDE8F04FFFF747
:1011B00019BEDBF800301A1DCBF800201968019722
:1011C000434600960A222846FFF728FEB9E6AB6898
:1011D0002A68591CA9604FF02501D154D5E9013284
:1011E0009A42FFF4AEAEBBE6DBF800301A1DCBF836
:1011F0000020196801974346009610222846FFF701
:101200000DFE9EE6DBF80020131DCBF80030AB6826
:1012100029681278581CA860CA54D5E901329A424C
:10122000FFF48FAE9CE6DBF800301A1DCBF80020EF
:10123000D3F8009089EAE972A2EBE972092A4FF02B
:10124000010A01DC09E01A46B04B632AA3FB021332
:101250000AF1010A4FEAD303F5DCC24538BFC246A2
:1012600007F00203002E40F0A880002B40F015810B
:101270000026B9F1000FC0F2FD807B070CD5AA68EB
:101280002B68501C2B21A8609954D5E901329A4251
:1012900002D32846FFF7A6FD07F00303022B00F058
:1012A0000881CDE90067434649460A222846FFF7F0
:1012B000B5FD46E6DBF80020131DCBF80030AB6827
:1012C00029681768581C3022A860CA54D5E9012340
:1012D000934280F010812A68581C7821A860D1546C
:1012E000D5E90123934280F001810F2F03D93A46BB
:1012F00012090F2AFCD84FF0805606E00F2E4FEA55
:1013000016137FF61EAE1E46AB682968B7FBF6F2D1
:10131000581CA8607E48805CC854D5E901319942C8
:1013200006FB1277EAD32846FFF75CFDE6E7DBF819
:1013300000301A1DCBF8002017F00107D3F8008009
:101340005ED098F80020002A00F0DE80AB684746A7
:10135000C8F101092968581CA860CA54D5E90123BD
:10136000934209EB07081AD217F8012F002AF1D18E
:1013700046457FF6E6AD202702E046453FF4E1AD65
:10138000AB682A68591CA960D754D5E901329A4242
:1013900006F1FF36F1D32846FFF724FDEDE7284696
:1013A000FFF720FD17F8012F002AE1D0AB68D1E745
:1013B00008460026214604E67047B9F1000F01DB1C
:1013C000790700D5013E002B62D1FA073FF551AFF6
:1013D000002E3FF44DAF56457FF64BAF2021AA6853
:1013E0002B68501CA8609954D5E901329A4206F145
:1013F000FF3659D2002E3FF43BAF5645EFD138E7C8
:10140000B8F1000F03D0404616F0CEFF0746BE42AB
:1014100015D9A6B14FF0200901E0BE420FD0AB684C
:101420002A68591CA96002F80390D5E901329A4252
:1014300006F1FF36F1D32846FFF7D4FCEDE798F824
:101440000020002A3FF47DADAB682968581CA860D5
:10145000CA54D5E90123934204D218F8012F002A77
:10146000F3D16EE52846FFF7BDFC18F8012F002ADE
:10147000EAD166E5AA682B68501C2D21A860995412
:10148000D5E901329A42C9F10009FFF405AF00E73E
:10149000B8F1000F3FF4EDAE97E7B8F1000F31D08F
:1014A000F8073FF5E6AEE3E62846FFF79BFC202170
:1014B000A0E7B8F1000F7FF4F4AE0EB356457FF607
:1014C000F0AE3021AA682B68501CA8609954D5E969
:1014D00001329A4206F1FF3603D28EB15645F1D160
:1014E000DFE62846FFF77EFC3021F6E72846FFF7C7
:1014F00079FCAB68F9E62846FFF774FCAB68EAE6CE
:101500000026CEE64646B4E6904631E7CDCCCCCCBC
:1015100020B601002DE9F041058ACF1C043D2F447F
:101520000646B7FBF5F7FFF721FC002834D0FFB2E1
:101530004FF48073013F0446C580066083802CD041
:101540008046002509E06379AF4203F1010363712E
:10155000C8F80000066080461FD03046FFF706FC42
:1015600001350028EFD194F805802768B8F1010310
:1015700016D03D46013083422D68FBD1B8F1000FF3
:101580000AD0002601E03C463F6821460136284645
:10159000FFF712FCB045F6D800242046BDE8F081E4
:1015A00021463846FFF708FCF6E700BF043001216A
:1015B000FFF7ACBB2DE9F041012104460430FFF7F1
:1015C000B1FBC0B208B1BDE8F08194F80580256890
:1015D000B8F1010314D02E46013083423668FBD1A6
:1015E000B8F1000FEFD0002701E02C462D6821460E
:1015F00001373046FFF7E0FBB845F6D8BDE8F0818B
:1016000021462846BDE8F041FFF7D6BB2DE9F84357
:101610000546C6884079144606FB00F2043A04EBFE
:10162000030C1F1D624538BFD41ABE428846B7FB63
:10163000F6F106FB117002D801392D68FCD1371A7A
:10164000A74228BF27469CB14FF000090430E41B95
:1016500028443A4608EB090116F072FAA642B9444A
:101660002D6837464FF0000028BF2746002CEDD1EB
:10167000BDE8F8832DE9F8430546C688407914464D
:1016800006FB00F2043A04EB030C1F1D624538BF51
:10169000D41ABE428846B7FBF6F006FB107102D89A
:1016A00001382D68FCD1771AA74228BF27469CB184
:1016B0004FF0000904312944E41B3A4608EB0900C5
:1016C00016F03EFAA642B9442D6837464FF00001A5
:1016D00028BF2746002CEDD1BDE8F88330B585B092
:1016E000047845688DF80040D0E90240064A074B6F
:1016F000039053F8213001958DF8084052F82110DD
:101700006846984705B030BD5063032058630320F6
:1017100030B585B0047845688DF80040D0E90240C6
:10172000064A074B039053F8213001958DF8084085
:1017300052F821106846984705B030BD5063032029
:10174000586303202DE9F043DFF8748006784B7F5F
:1017500008F806300D46844617460FCD89B06C4612
:101760000FC495E80F009CF80050DFF85890DFF8A0
:1017700058E018F8055049F8267084E80F004EF834
:10178000260004965DB1002F0B4A69460CF1040057
:1017900008BF3A4600F01CFC09B0BDE8F083002FFA
:1017A000064A69460CF10C0008BF3A4600F0A8F959
:1017B00009B0BDE8F08300BFDD160000111700007E
:1017C000E06303205863032050630320F0B53E4BD1
:1017D0001A6885B0002A4FD13C4C3D4B1A6882B143
:1017E00000221A6062791B68019342F0040303F03F
:1017F000110111291A460198637104BF43F02002B8
:101800006271344B1A68AAB100251D601A680292F1
:1018100004220299C3F80022C3F8F85323682E4823
:101820002946984723682D48294698470123237164
:1018300005B0F0BD637903F00F020F2A03D0D8077B
:1018400014D4190712D56279256822F00C0212F01F
:1018500020061346627123D022F0300343F01003B8
:10186000637101210020A84705B0F0BD627992079D
:10187000DED45B07DCD5E6E7144C00221A606279FF
:101880001B68009342F0080303F0120112291A4664
:1018900008BF43F020026371009808BF62719CE7A3
:1018A0000D4A92E8030002AF87E8030012E9030043
:1018B00043F0100382E803006371A6603846E660D7
:1018C0000121A84705B0F0BD145102406063032018
:1018D00004510240085102407063032068630320F2
:1018E000014B1B68184700BF7863032038B50C4BC9
:1018F000984213D100200D46FFF7ECF9094B1C79F3
:1019000024B10020FFF7EEF9112038BD0122204656
:101910001D601A71FFF7E6F9204638BD002038BD7A
:101920000020004078630320034B984203D1034B0F
:1019300000221A601A71704700200040786303206B
:1019400030B56D4AD2F8043399058BB066D5D2F81C
:101950002431002B62D00023C2F82431D2F8243184
:1019600003934FF40171654B0398C2F8081393F881
:10197000291009B9012151605F4902228DF8182010
:10198000D1F88024C1F880249869D968099200228E
:10199000CDE90710C3E90622D3E9001406A8A04741
:1019A000554AD2F81C31C3B1544B186A5969884260
:1019B00069D293F8280000F0FF04002863D1C2F830
:1019C0001C41D2F81C11029102999C68186A196A8C
:1019D000205C01311962C2F81C05474AD2F8443133
:1019E000D3B10021454BC2F84411D2F8440193F819
:1019F00029100090009800295AD19A6962B10022FA
:101A0000586AD9689A610122CDE907108DF818202B
:101A100006A8D3E9001290470BB030BD364AD2F881
:101A200004335B07BCD5D2F80831002BB8D0334B58
:101A3000996900293FD00021C2F80811D2F8081195
:101A400004910499D868596AD2F8182542545A6A00
:101A5000996901325A625A6A8A42A1D1DA691968CF
:101A6000002A31D0D8685D6A1C699A61079000220B
:101A70000120DC60DA615A628DF8180008955B6815
:101A800006A898478CE71C4A0020C2F81C01D2F82F
:101A90001C210192019A00299FD09A688DF81800A4
:101AA00008915861079206A8D3E90012904794E77D
:101AB00001211160A1E7C2F80811D2F808010590D0
:101AC0000598D2F81825C6E793F8292012B90A4AD2
:101AD00001205060084A4FF40170C2F80803586AA8
:101AE000DA6808900024012007928DF818005A68DF
:101AF0009C6106A8904753E70020004080630320C4
:101B00002DE9F041DFF8D48107792C2606FB078602
:101B100082B096F82A30002B40F098800C4605469B
:101B2000694900681646FFF7E1FE002840F08A8008
:101B30002368591C19D01F2B4FF001028ABF63493B
:101B40004FF0A04103F01F0302FA03F3C1F8083578
:101B500023681F2B86BF03F01F035C4A4FF0A0428F
:101B600003F5E073032142F8231063685A1C0BD07D
:101B70001F2B86BF03F01F03544A4FF0A04203F50A
:101B8000E073002142F823102B68A269C3F82425D2
:101B9000217D637D2A680B43C2F86C35D4E90012BD
:101BA0002B68C3F81425C3F80C15237D012B57D0DF
:101BB0002C2303FB07F308EB03025660226948F865
:101BC000032066B32A68237F414C0021C2F81C1110
:101BD000D2F81C2100922A68009EC2F84411D2F863
:101BE00044112A6801910199C2F804432A68120B32
:101BF00051B25B010029DBB22CDB01F1604101F540
:101C0000614181F800332B68324C1B0B5AB25209E8
:101C100003F01F03012101FA03F344F822302C23BF
:101C20002C6803FB0783002204250121C4F800551A
:101C300083F82A10C3E9062283F829205A6102B0EA
:101C4000BDE8F081112002B0BDE8F081082002B0AB
:101C5000BDE8F081204902F00F0211440B76D2E773
:101C6000A368591C0BD01F2B86BF03F01F03174915
:101C70004FF0A04103F5E073002241F82320E36810
:101C80005A1C1AD01F2B8ABF10494FF0A04103F0F5
:101C90001F03012202FA03F3C1F80835E3681F2B82
:101CA00088BF03F01F0303F5E0738CBF07494FF0B3
:101CB000A041032241F82320E3682A68A168C2F802
:101CC0000835C2F8101573E74119000000030050F1
:101CD0008000020000E100E0FCEC00E080630320F3
:101CE000F8B53A4F047902682C2303FB04730021F2
:101CF0005B68C2F8001583B10368354AC3F808234E
:101D00000368344D1B0B5AB25209203203F01F03F3
:101D1000012101FA03F345F8223003684FF0FF3C3C
:101D2000D3F80C65D3F81455D3F80825D3F810155B
:101D3000C3F814C5C3F80CC503686645C3F808C5E5
:101D4000C3F810C50CD01F2E86BF06F01F06224B0D
:101D50004FF0A04306F5E0764FF0020C43F826C0A2
:101D60006E1C0BD01F2D86BF05F01F051A4B4FF0C0
:101D7000A04305F5E075022643F825604D1C0BD005
:101D80001F2986BF01F01F01134B4FF0A04301F53F
:101D9000E071022543F82150531C0BD01F2A86BF47
:101DA00002F01F020C4B4FF0A04302F5E07202213B
:101DB00043F822100068FFF7B7FD2C2303FB0474DF
:101DC000002384F82A306360F8BD00BF80630320DD
:101DD0008402020000E100E0000300502DE9F04120
:101DE000314E05792C2303FB05630446586984B002
:101DF00000284CD11862996083F828005A61226843
:101E0000C2F81C01D2F81C11226802910121029F24
:101E100091602268D3F808C0C2F81C01D2F81C11E6
:101E2000019101991F6A196A1CF807700131196242
:101E3000C2F81C755A6812B104B0BDE8F0811A6A84
:101E40005F69216897421BD9864602E093F82820F3
:101E50000ABBD1F81C21002AF8D0C1F81CE1D1F846
:101E60001C210392039AD3F820801A6A1CF8088078
:101E700001321A62C1F81C851A6ABA42E9D3216894
:101E8000D1F81C31002BFBD00123CB6004E01120E2
:101E900004B0BDE8F0810F202C2303FB056500236F
:101EA0006B6104B0BDE8F08180630320F0B5464B60
:101EB000D3F8242189B0002A55D00021C3F8241179
:101EC000D3F82421029202228DF81020029AD3F82E
:101ED00080043E4AC3F880040790D3F83C05D368D9
:101EE0000690C2E9061105931168536804A8984743
:101EF000354BD3F844214AB10021344AC3F8441188
:101F0000D3F84401916901900198D9B92E4BD3F8C7
:101F10002021AAB10021C3F82011D3F820012B4AB7
:101F200000900098506958B1D3F84C05936806901A
:101F30008DF810105161059304A8D2E90013984759
:101F400009B0F0BDD3F83C35D168069300240025D4
:101F5000012305918DF81030C2E90645D2E900133E
:101F600004A89847D2E7D3F810110029C0D0C3F8CD
:101F70001021D3F810111548039103998169D3F802
:101F80003C458C42B4D1C569C768D0E900168DB113
:101F9000D3F800C285612CF02005C261C3F800525D
:101FA0000369C3600122CDE905748DF8102004A8EF
:101FB000B0479DE701238561CDE905748DF81030A8
:101FC00004A8B04794E700BF00200040B06303209E
:101FD0002DE9F0430779794E4FEAC70808EB07036C
:101FE00006EB830385B093F82030002B40F0A880E7
:101FF0000D460446724900689146FFF777FC0028B9
:1020000040F09A802B68591C19D01F2B4FF0010209
:102010008ABF6C494FF0A04103F01F0302FA03F39B
:10202000C1F808352B681F2B86BF03F01F03654AD4
:102030004FF0A04203F5E073032142F823106B68D0
:102040005A1C0BD01F2B86BF03F01F035D4A4FF0B5
:10205000A04203F5E073002142F823102368AA6927
:10206000C3F82425297D6A7D23680A43C3F86C25BB
:10207000D5E900312268C2F80C35C2F814152B7D61
:10208000012B67D008EB07029200B318C3F8049045
:102090002B69B350B9F1000F3DD021682B7F4A4D19
:1020A0000022C1F81021D1F8101100912168DDF84B
:1020B00000C0C1F82021D1F8201101912168DDF87C
:1020C00004C0C1F82421D1F8241102912168DDF85F
:1020D00008C0C1F84421D1F8441122680391039942
:1020E000C2F804532268120B51B25B010029DBB223
:1020F0002ADB01F1604101F5614181F80033236879
:10210000324D1B0B5AB2520903F01F03012101FA91
:1021100003F345F822304744226806EB8706002384
:1021200001240821C2F8001586F82040C6E90633CC
:10213000736105B0BDE8F083112005B0BDE8F08300
:10214000082005B0BDE8F083214902F00F021144D8
:102150000B76D4E7AB68591C0BD01F2B86BF03F05E
:102160001F0318494FF0A04103F5E073002241F826
:102170002320EB685A1C1AD01F2B8ABF11494FF03D
:10218000A04103F01F03012202FA03F3C1F808354E
:10219000EB681F2B88BF03F01F0303F5E0738CBFB0
:1021A00008494FF0A041032241F82320EB68226840
:1021B000A968C2F80835C2F8101563E7B0630320B8
:1021C000AD1E0000000300501003020000E100E01B
:1021D000FCEC00E0F8B507793A4C0268FE00F31910
:1021E00004EB830300215B68C2F8001583B1036828
:1021F000354AC3F808230368344D1B0B5AB2520901
:10220000203203F01F03012101FA03F345F82230C5
:1022100003684FF0FF3ED3F80CC5D3F81455D3F83C
:102220000825D3F81015C3F80CE5C3F814E50368C6
:10223000F445C3F808E5C3F810E50DD0BCF11F0F55
:1022400086BF0CF01F0C224B4FF0A0430CF5E07C36
:102250004FF0020E43F82CE06B1C0CD01F2D86BFF4
:1022600005F01F051A4B4FF0A04305F5E0754FF040
:10227000020C43F825C04D1C0BD01F2986BF01F06E
:102280001F01134B4FF0A04301F5E071022543F805
:102290002150531C0BD01F2A86BF02F01F020C4B8B
:1022A0004FF0A04302F5E072022143F822103E44B1
:1022B00004EB86040068FFF737FB002384F8203026
:1022C0006360F8BDB06303201003020000E100E08A
:1022D0000003005001F06043B3F1005F2BD1F0B474
:1022E0000679254F4FEAC60C0CEB060407EB840475
:1022F00082B06369002B37D16261A1600568C5F8BF
:102300002031D5F8202105680192019AC5F858318D
:10231000D5F8582100920568009A6269C5F84415FD
:10232000C5F84825026801219160626832B11846FB
:1023300002B0F0BC7047102318467047026800E0F6
:10234000BBB9D2F82011D2F858310029F8D0002BAF
:1023500018BF0F230CEB060207EB82020021184680
:10236000516102B0F0BC70471123184602B0F0BCB6
:1023700070470F23EEE700BFB063032070B51D4C1C
:102380001D48012500234FF040610322C4F80C557D
:10239000FF26C4F81055C4F81415C4F818251E21DA
:1023A000C4F804351F22C4F81C55C4F82035C4F8FD
:1023B00024351D23C4F8285582B0C4F86065C4F8DC
:1023C0006415C4F86825C4F87035C4F8005515F0D4
:1023D0007FFF0A4A0A4BC4F840252946C4F8503505
:1023E00001AA256042F6E06000F0DEFF01F0A6FBE6
:1023F00020BFFDE70050024048B601002400002045
:1024000089AE01002DE9F04F4400DFF870B12618C5
:102410000BEBC60683B0F76A012F80468A469146C9
:1024200042D0002F63D0022F39D100F1010808EB10
:102430004808756A4FEAC8080027B36A346AAB4295
:1024400003F1FF329CBF1B1903F1FF33A4EB05041A
:102450008CBF531B5B1B0BEB08024C4528BF4C4643
:102460009C42506828BF1C4628445146224615F01D
:1024700067FB336A25449D422744A9EB0409A24423
:1024800007D07562B9F1000FD7D1384603B0BDE867
:10249000F08F00257562B9F1000FCED1F5E7002766
:1024A000384603B0BDE8F08FD6E90835B76AAF42C9
:1024B00098BFFF18461C013F06EB46067F1B0BEB3F
:1024C000C606974228BF17467068A3EB05094F451B
:1024D00028442DD23A4615F033FBA0440BEBC80B31
:1024E0003D443846CBF8245003B0BDE8F08FB36AC2
:1024F000756AAB429CBF316A5B18013B5B1B9A4219
:10250000C3D8044400F101080BEBC40408EB4808ED
:102510000BEBC80B236ADBF804005E1BB2422844B5
:1025200015441BD2514615F00BFB4F466562ACE7D4
:102530004A46019315F004FB019B7068ED1A3D4477
:102540000AEB09012A4615F0FBFAA0440BEBC80B75
:102550003846CBF8245003B0BDE8F08FED1A324670
:10256000514615F0EDFA0AEB0601DBF804002A46A5
:1025700015F0E6FA4F46656287E700BFE463032083
:1025800010B44FF080414FF080520020C1F80C0190
:102590005E4BC1F81001C1F83805D2F80414C3F835
:1025A0002015D2F80814C3F82415D2F80C14C3F877
:1025B0002815D2F81014C3F82C15D2F81414C3F847
:1025C0003015D2F81814C3F83415D2F81C14C3F817
:1025D0004015D2F82014C3F84415D2F82414C3F8D7
:1025E0004815D2F82814C3F84C15D2F82C14C3F8A7
:1025F0005015D2F83014C3F85415D2F83414C3F877
:102600006015D2F83814C3F86415D2F83C04C3F846
:102610006805D2F840043E49C3F86C050968D2F851
:102620004424C3F87025082924D04FF08043D3F800
:102630000024D20744BF6FF00102C3F80024354ADA
:10264000D2F8883043F47003C2F88830BFF34F8F5C
:10265000BFF36F8F4FF01023D3F80022002A23DB43
:10266000D3F80432002B1FDB2B4B2C4A1A605DF889
:10267000044B70472A4B1B68002BD6D129482A4AA5
:102680002A4C04602A492B4BFB20C2F818050A6823
:102690001B68294822F00F0203F00F0313434FF485
:1026A00000720B600260C0E7244A0123C2F80435BF
:1026B000D2F80034002BFBD04FF0102312211F4A18
:1026C000C3F80012D2F80034002BFBD04FF01023D7
:1026D00012211A4AC3F80412D2F80034002BFBD09E
:1026E00000231649C2F80435D1F80034002BFBD082
:1026F000BFF34F8F0749124BCA6802F4E0621343DD
:10270000CB60BFF34F8F00BFFDE700BF00C00040AC
:102710003001001000ED00E0385D03200090D00390
:10272000340100108C56004000F000404881030046
:10273000E40E0040580200104096024000E00140C4
:102740000400FA05000000002DE9F04F0446A7B090
:10275000B848D4F80CE0666804AF80FB0E0C4FEA72
:10276000EE70C0EB2C19D7F8B050BE624FEAE90A00
:1027700026687E627B6300264FEAA903AA45FB62B6
:10278000FE64B9633A6300F31685C0EBEC0000EB1E
:1027900040008542A8BF0546012A4FEA690840F378
:1027A000EB80002900F0EC80A36BFB6307F158007D
:1027B000636BD4F840B0BB6103F0B8F9E26B002A58
:1027C00040F3FF82F96B40F2EA33994200F0348122
:1027D0009A4200F088840123FE61C7F820D0BB60D4
:1027E0005D45C0F2EB82D845A3684146B8BF594663
:1027F00003FB01F35B00B96A073323F00703ADEB7A
:10280000030D214440F2EA33B9629A4204A93961C6
:1028100000F064844FF47A7303FB0BF3E26893FBDC
:10282000F2F30A2BB8BF0A232362BB6B002B00F024
:102830006583236B6361FB6BB3F57A7F00F076836E
:102840004FF47A53E361D7F8B4304FEA430804F108
:102850001003C7F81490C7F80CA03E69D7F8289069
:1028600000259A4608E0B96CA26802FB01F2530009
:102870000D44AB451E442CDDE36A039307F1480287
:10288000B5FA85F3CDE9016207F1580200925B09C0
:1028900042465146484607F0CFFD0028E3D0B8F144
:1028A000000F00F05E83A268C7F848B002FB0BF28D
:1028B000002A4FEA420340F3FB821A4600213046C9
:1028C000BB6215F078F95946BB6A0D44AB451E440E
:1028D000D2DCD7F8B430D7F81490D7F80CA0002B7E
:1028E00040F06682BB6B002B00F03D847B6FFA6E7C
:1028F000A16BB3FA83F3C3F1200340F2E930D31A9A
:10290000814203F1110208BF03F125023B6BB2EBD8
:10291000C30F00F34D82FA6B40F2E9339A4200F0A4
:102920003E84012107F1580003F0E2F97A6FFB6E53
:10293000396B7861B2FA82F2C2F120029B1ADA1D79
:10294000D210891A79600121B9623A63B3EBC20FE0
:1029500040F31183BB68FA69C7F808D09B000733BE
:1029600023F00703ADEB030D04AB002A00F0418414
:1029700000223A631125C6E2236C9D42A8BF1D4682
:10298000E36BFB63FBB14D452CDDD7F834A02E463D
:102990004FF000084E4533464FF00002A8BF4B46AB
:1029A000CDE90038114653462046FFF7CDFE0028FA
:1029B000C0F20C82A368361A03FB00F3002E0AEB68
:1029C000830AE7DC09E0A26802FB05F2002A04DDC5
:1029D00092001946786B15F0EEF828468C37BD4604
:1029E000BDE8F08F14DBAB461A460023BB63BB6126
:1029F000C7F820D0AB4500F3E181F96B40F2EA3330
:102A000099424FF00003FB6140F0AE82FB603BE077
:102A1000454500F3A382B3F57A7F00F04B82FB6A51
:102A20009D4240F3B4834545A8BF2B469B46FA6BB5
:102A3000DBE700BF1F85EB518A421DD0626CDAB91B
:102A4000F96AA368C7F820D003FB01F39B000733A2
:102A5000594523F00703ADEB030DA8BF59460B46BC
:102A600004A9F9602046CDE900320B461146FFF774
:102A70006BFE0123FB6104E00023FB61FB60C7F8F0
:102A800020D05D45C0F29A8107F144023A6140F2DC
:102A9000EA320423FA630025073323F00703FA69B7
:102AA000C7F808D0ADEB030D04AB002A00F0578344
:102AB000F96B40F2EA32914240F0238200237B61BD
:102AC0007B60BB627B6A23441E46BB697BB1A3F279
:102AD0004D43042B00F2C383BF4A42F21C7152F8EB
:102AE0002320304602F0D6FE002840F0B283226B4D
:102AF00042F21871304602F0CDFE002840F0A38368
:102B0000BB6A002B40F01D8107F15403BB612A46CC
:102B100042F21A71304602F0BDFE0546002840F030
:102B20008083FA6BE36BB2F57A7F00F05B81D94565
:102B30004D46A8BF5D46934205D0002B03DD636C74
:102B4000002B00F01683D7F8B4300095002B4FF01F
:102B5000000207F15803B96BCDE9013218BF1146E5
:102B60003046D7E90C2302F08BF8FA6B40F2EA33D7
:102B70009A42054640F0968107F150094A4642F2D2
:102B80001F71304602F086FE002840F056833B6DF0
:102B9000DB6B7B62BB6A002B5FD07B69002B00F094
:102BA0002C82D4F80880B8F1000F56DDBAF1000F7E
:102BB00053DDBE69D7F834C04FEA880206EB020E37
:102BC0006046314600230133D1F80090C0F80090F0
:102BD0009A4511441044F6D10436B6450CF1040C64
:102BE000EED108FB0AF8796BB869C7F838B04FEA3C
:102BF0008803184401EB0208D7F824B04BF680395B
:102C000001EB030C98448646E36899FBF3F3F7EE77
:102C1000005A4FEA83095E4670466346002196EDEE
:102C2000007A90ED006AD3ED006A27EE077A013151
:102C300075EEC77A8A4567EE867A4E44E7EE267AC5
:102C40001044C3ED007A1344E9D10CF1040CE045C3
:102C50000EF1040EDFD1D7F838B0FB69002B4DD050
:102C6000E368A6684BF6803C9CFBF3F9FB6A9B4546
:102C7000C0F28C8106FB0AF8B8F1000F4FEA880811
:102C800004DD4246F968786B14F05AFF002E35DDFA
:102C9000BAF1000F32DD7A6BF968C7F838B0B600C8
:102CA00041449319D7F824B04FEA890C8E4603EBC0
:102CB0000809F7EE005A90445846714643460022F0
:102CC00090ED007A91ED006AD3ED006A27EE077A65
:102CD000013275EEC77A924567EE867A6044E7EE78
:102CE000267A3144C3ED007A3344E9D108F104086F
:102CF000C8450EF1040EDFD1D7F838B0A36A002B17
:102D000040F0A3803B6B012B5EDD7B6FFA6C534080
:102D10006365FB6BE363BB6A23B17B69B3FA83F33F
:102D20005B09BB62BB6A6364D7F808D015EA250566
:102D300038BF5D46D7F820D028468C37BD46BDE861
:102D4000F08FA368FA6A03FB02F39B00073323F0BA
:102D50000703ADEB030D7B690DF11008C7F8188070
:102D6000002B3FF4D4AE024642F21A71304602F014
:102D700091FD002840F05B82CDE90100FB6A0093E1
:102D8000386BB96B7A6801444346304601F078FFEE
:102D900007F14C0240F6BF71304602F07BFD00287F
:102DA0003FF4B5AE40F2F9120C490D4800F056FF61
:102DB000BB6800229B00FA6011256DE64FF0FF35DD
:102DC000B8E7C7F820D015E60023A1E70546284656
:102DD0008C37BD46BDE8F08F50B6010068B60100E3
:102DE00034B80100A168C84A01FB0BF8928AA7F821
:102DF0005020B8F1000F07DD01464FEA8802786BDA
:102E00007B6214F0D8FE7B6A40F2E932934200F014
:102E1000858107F15009B8F1000F7FF7AFAE3B692C
:102E2000DFEDBA6A9A1E7B6B03EB880832F9021F4A
:102E3000D3ED007A07EE101AB8EEC77AE7EE267ADD
:102E4000E3EC017A9845F1D198E607EE903A9FEDD0
:102E5000B07AF8EEE77A67EE877A17EE900A17F005
:102E600091FFA7A3D3E9002317F0E4FF41EC100B77
:102E700015F0EEFF51EC100B18F0B4FAA26802FB4B
:102E80000BF2002A07EE100A7FF73CAF7B6B03EBD7
:102E90008202D3ED007A67EE877AE3EC017A9A42F8
:102EA000F7D12FE7A36807F1500903FB0BF8B2E74E
:102EB0005946DDE4A845A368B96AC7F820D0424660
:102EC000B8BF2A4603FB02F35B000733FA6B23F01B
:102ED000070302FB05F2ADEB030D92FBFEF30A2B99
:102EE000B8BF0A2321440022B962236204A9012346
:102EF000BA613961AB46BA63FA61BB604FF0010851
:102F0000A5E400227A61F96A5945A8BF5946002212
:102F10000846019211467A600090FB6020461646F2
:102F2000FFF712FC0123BE62FB61CBE5BA6940F2F8
:102F30004D439A421BD040F24E439A4200F02A8100
:102F400040F24F439A423FF47BAC4FF47A53E36133
:102F500040F285126F49704800F080FEC3461A4661
:102F600043E56FF00205E5E60123BB603BE44FF467
:102F7000FA53E36167E4FB6D7968C7F808D0002273
:102F80005B1AFA61FB65FA6011259BE5002E7FF75D
:102F9000B5AEBAF1000F7FF7B1AE7A6BC7F838B0B3
:102FA000B300D7F80C80D7F824B04FEA890C9646C6
:102FB00003EB0209F7EE005A5E46404672460021D6
:102FC00096ED007A90ED006AD2ED006A27EE077A5E
:102FD000013175EEC77A8A4567EE867A6644E7EE78
:102FE000267A1844C2ED007A1A44E9D10EF1040E93
:102FF000F14508F10408DFD17EE640F6BC713046A9
:1030000002F048FC002840F006817A6942F21A7109
:10301000304602F03FFC002840F0F7807B69CDE9A4
:103020000133FB6A0093386BBB6B7A680344194623
:103030003046BB6901F024FE304607F14C0240F6F1
:10304000BF7102F027FC002840F0D980D4E9026368
:10305000ABEB0A0806FB08F80AFB06FE002E4BF64F
:10306000803C4FEA88084FEA8E0E9CFBF3FC7FF70A
:10307000F4ADBAF1000F7FF7F0AD7B6BC7F838B055
:10308000B6009844BB69D7F824B00EEB06094FEAA6
:103090008C0C99449E44F7EE005A584643467146BC
:1030A000002290ED007A93ED006AD1ED006A27EEE0
:1030B000077A013275EEC77A924567EE867A6044E8
:1030C000E7EE267A3144C3ED007A3344E9D10EF1BC
:1030D000040EF14508F10408DFD1BCE5B86A07F039
:1030E00097F9FFF797BBA368F96AC7F820D003FBED
:1030F00001F3BB600123FB61FFF772BBAFF30080FC
:10310000EF39FAFE422EE63F50B6010000000038CB
:103110002D152A3A68B601007CB60100BB6A2BB1B6
:103120007B691BB1636C002B7FF473AE002242F20B
:103130001A71304602F0AEFB002840F09680CDE9CF
:103140000100CDF800A007F150097B6B494602222F
:10315000304601F095FDA36803FB0BF85BE67A614E
:103160007A60BA62AEE41A46BB68FA609B00112529
:1031700092E440F6BC71304602F08CFB00283FF42C
:10318000E2AC4FF401723C493C4800F067FDAB46AD
:10319000FA6B2AE442F6E063E361FFF754BB0C21CB
:1031A00007F1580002F0A4FDB86238B9BB68F860B6
:1031B0009B00112570E46FF001050EE4012107F179
:1031C000580002F095FD4FF48071786107F15800C6
:1031D00002F034FE7A6FFB6E811C386B7960B2FAB4
:1031E00082F2C2F12002411A9B1A39630A46FFF7A4
:1031F000ADBB7A60BA623A631125FA6062E44FF4BB
:103200000C721D491E4800F029FD40F22D221A497A
:103210001C4800F023FD4FF40B721749174800F0CB
:103220001DFD40F2FD121449174800F017FD4FF440
:10323000FB721149134800F011FD40F225220E499E
:10324000124800F00BFD40F2ED120B49104800F05F
:1032500005FD40F2EB1208490E4800F0FFFC4FF468
:10326000F47205490C4800F0F9FC40F213220249BF
:10327000044800F0F3FC00BF68B6010058B9010033
:1032800034B80100B8B70100C8B80100A0B9010006
:1032900018B7010090B601007CB60100431E012B57
:1032A00001D90020704710B582B0044601A807F08C
:1032B000A9F810B1002002B010BD019B033323F028
:1032C00003032046019301F0C3FC019B58331844CB
:1032D00002B010BDF0B54BF68033994283B00DD0EB
:1032E00045F6C053994209D0B1F57A5F06D042F64F
:1032F000E063994202D0B1F5FA5F50D1531E012B21
:103300004DD8044601A816460D4607F07BF8002864
:1033100036D000220021204614F04DFC01A807F011
:1033200071F8002838D1019BA660033323F0030312
:1033300003F158075821C4E900712663E560A561CF
:10334000266160180193274407F062F820BB3246DB
:103350002946384602F086FB0646E8B942F220715B
:103360003846324602F096FA0E49E66381FB053193
:10337000ED17C5EBE115E6622564304603B0F0BDFC
:10338000019B033323F003033046019301F060FCFB
:10339000019A58320244BDE76FF00206EDE74FF0A4
:1033A000FF36EAE71F85EB51F0B54BF680339842C4
:1033B00083B00DD045F6C053984209D0B0F57A5F7E
:1033C00006D042F6E063984202D0B0F5FA5F24D10D
:1033D0004B1E012B21D8044601A816460D4607F0C6
:1033E00011F870B1002014F09BFB074620B32A4669
:1033F0002146FFF76FFF06B13060B0B9384603B021
:10340000F0BD019B033323F003032846019301F031
:103410001FFC019B58331844E5E74AB100274FF0E1
:10342000FF333846136003B0F0BD384614F080FB1C
:103430000027384603B0F0BD002EF9D06FF0060328
:103440003360DBE72DE9F04F044680688846411E73
:10345000A3B00129DDE92C5600F2AE81E1681F46D8
:103460004BF68033994291460ED045F6C0539942AF
:103470000AD0B1F57A5F07D042F6E063994203D0F3
:10348000B1F5FA5F40F0C181A369994240F08F81A4
:10349000E36953B1B3F57A5F07D042F6E062934235
:1034A00003D0B3F5FA5F40F0AB812369984240F056
:1034B00079816369022B00F27081236A142B7FD813
:1034C000C24A22FA03F3DB077ED5E36A002BC0F27F
:1034D0005A8140F05D81236B013B012B00F2718129
:1034E000012E00F2B580002E73D1B9F1000F00F06B
:1034F000A280B8F1000F00F0BB80B9F1000FC0F25C
:10350000A78098F800301A0600F1A58003F0600249
:10351000602A00F002815B0903F24D4B4FF47A738D
:103520000693404609F028F82F9B98F80020039353
:1035300009AB02930AAB0193002312F0040F494632
:10354000009382460DF123032E9A404614BF4FF09C
:1035500002094FF0010909F047F8002861DB099BD7
:103560009844002E00F0AD805545C0F2E380069AE5
:1035700040F2EA339A4200F0DD80A26B9A4200F0FA
:10358000D980A5EB0A02554507927FD0309B049362
:103590000023CDE90023CDE9023300223B4611464A
:1035A0002046A66CFFF74EFF0028C0F2E180079B83
:1035B00083426BD040F2B1228549864800F04EFB31
:1035C000282B82D03C2B80D05A228149824800F09F
:1035D00045FB824ACB1782FB01C2C3EBE21395FB8A
:1035E000F3F203FB12539BBBB9F1000F03D0B8F108
:1035F000000F82D1C1460026034603E081444D45B9
:1036000012DDA368A5EB0901002203FB09F3CDE954
:10361000001607EB830311462046FFF795F80028B4
:10362000ECDA23B0BDE8F08F40F0F4802846A564C2
:1036300023B0BDE8F08F694B83FB0139C917C1EB9B
:10364000E91195FBF1F901FB1959B9F1000FD2D03D
:103650004FF0FF30E5E7C3F34113002B03F24E4B6D
:1036600040F24D4308BF9B4640F2EA33069358E7C9
:103670005A4B83FB0139CB17C3EBE91395FBF3F9E5
:1036800003FB1959B9F1000FB5D0E1E7069AA36819
:10369000A263079AC4F834B003FB02F30122C4F812
:1036A00040A0C4F8309041460192CDF800A007EB4D
:1036B0008303BDF928202046FFF746F80028B5DA35
:1036C000AFE700FB0AF3AB4254DC069BC4F840A012
:1036D000C4E90DB3C4F83090002838D00DF12809A2
:1036E00009EB400B07E0824547D139F9023CCB4555
:1036F000564498442BD0A36800220192AA1B009242
:1037000003FB06F307EB830339F9022B41462046FE
:10371000FFF71AF80028E6DA83E713F0100F40F2FB
:10372000514318BF9B4640F2E93308BF4FF48A6B00
:103730000693F6E60022309B049300953B46204614
:10374000CDE9022201921146FFF77CFE69E7309B2A
:10375000A66423B9002330462365E36461E7384655
:1037600004F14C03A268314608F072FD304658E778
:10377000A66456E76FF0010053E74FF43572144921
:10378000174800F06BFA5C221149164800F066FAFF
:103790005D220F49144800F061FA59220C49134880
:1037A00000F05CFA58220A49114800F057FA5622F4
:1037B0000749104800F052FA542205490E4800F01B
:1037C0004DFA5F2202490D4800F048FA010410004A
:1037D00068B601003CBE0100A8BC01001F85EB518A
:1037E00070BE01007CBD01009CBD01001CBC01003D
:1037F000DCBB0100DCBA010030BA0100C8BD010029
:1038000057220749074800F029FA5522044906487B
:1038100000F024FA4FF423720149044800F01EFA24
:1038200068B6010018BB01006CBA010010BE0100AF
:103830002DE9F04F2DED048B89B006AFD7E9109636
:10384000B9F1000F40F384801C468A46804619B1C6
:10385000002A01DD002E54D0D8F80830591E012965
:103860007CD809FB03F39B00073323F00703ADEB80
:10387000030D0020012306AD01960493CDE902005B
:10388000CDF8009051462B464046FFF7DBFD061E63
:1038900030DDD8F8083003FB06FABAF1000F29DD55
:1038A000023C4FF00008DFF8F890DFED388A9FED1A
:1038B000388ADFF8F0B09FED379A04EB4A0A0BE044
:1038C000F4EEC97AF1EE10FA58BF47F6FF704BD408
:1038D00024F8020FA2450DD0F5EC017A67EEA87A24
:1038E000F4EEC87AF1EE10FAEADC584624F8020F3A
:1038F000A245F1D130460C37BD46BDEC048BBDE886
:10390000F08F0B78D0F80CB013F003031CD0032B0E
:103910001CD1012A1FD0487800F03F055946504677
:103920007A6008F029FE05FB00F000EB80030BEB4A
:103930004B0B03EB83035B450DDC00280BDD81455E
:10394000A8BF81467A6887E70125E7E70225E5E712
:103950004FF0FF36CEE76FF00306CBE740F22A3296
:103960000D490E4800F07AF917EE900A17F00AFA9E
:1039700042464B4617F0A8F841EC100B15F0E4F95D
:1039800051EC100B17F006FD00B2A1E70000004754
:10399000000000C700FEFF4668B6010030BA010013
:1039A0000000E03F0080FFFF70B586B00A9D002D4B
:1039B0000ADD0B9E0024CDE90056CDE903440294B4
:1039C000FFF740FD06B070BD4FF0FF30FAE700BFD3
:1039D0000EB470B583B007AA044652F8043B0068E1
:1039E0000192A3F6A97325186668262B00F2988029
:1039F000DFE803F025969696969696969696969676
:103A0000969696969696962F499653965D6C9696B0
:103A10009696789696969696818A1400019B1A68D7
:103A200004330193002A00F08480284640F6CF71C9
:103A300001F030FF03B0BDE8704003B07047019B58
:103A40001A6804330193002A73D0636B136000205B
:103A5000F0E72822002104F1300014F0ACF840F621
:103A6000BC71284601F016FFA01906F0D1FCE368EE
:103A7000314AA168216382FB0312DB17C3EBE21317
:103A800023640020D6E7019B1A6804330193002ABF
:103A90004FD0E36813600020CCE7019B1A68043321
:103AA0000193002A45D0636D13600020C2E7019B9B
:103AB0001A6804330193002A3BD0E16B40F2EA33E9
:103AC000994230D0636A13600020B3E7019B1A6803
:103AD00002F500410433B1F5803F019329D2A2627F
:103AE0000020A7E7019B1A68043301930AB3A36C73
:103AF000136000209EE7019B1A6804330193C2B152
:103B0000A36A1360002095E7019B1A680433012A19
:103B100001930ED8284640F6CE7101F0BBFE89E72E
:103B20006FF0040086E7284640F6C17101F0B2FE4E
:103B300080E74FF0FF307DE71F85EB5113F0F8BFB2
:103B4000007803060FD400F06003602B03D0400917
:103B500000F24D40704710F0100F40F2514008BF86
:103B60004FF48A607047C0F3411303F24E4040F2B5
:103B70004D42002B08BF1046704700BF037813F07A
:103B8000040F14BF02200120704700BF00290FDD81
:103B9000037813F0030309D0032B05D101290AD0C0
:103BA000407800F03F0070470220704701207047C6
:103BB0004FF0FF3070476FF003007047002921DDA0
:103BC00038B5037813F0030317D0032B13D1012961
:103BD00015D0457805F03F051146144608F0CCFC99
:103BE00005FB00F000EB800304EB440403EB8303CC
:103BF000A34204DC38BD0225EEE70125ECE76FF0B7
:103C0000030038BD4FF0FF30704700BF002A38B5C1
:103C1000C56820DD0B7813F0030317D0032B13D1F5
:103C2000012A15D04C7804F03F040846294608F0D4
:103C3000A3FC04FB00F000EB800305EB450503EB60
:103C40008303AB4204DC38BD0224EEE70124ECE739
:103C50006FF0030038BD4FF0FF3038BD00B5064BA4
:103C60001B6883B0DC680090134620460A4603496F
:103C700013F020FF13F002FF3C5D032000BF0100A2
:103C8000B0F57A5F1ED008B509DCB0F5FA5F15D043
:103C900042F6E063984208BF04200AD108BD45F609
:103CA000C05398420CD04BF68033984208BF012095
:103CB000F4D0542204490548FFF7D0FF062008BD80
:103CC000022008BD032070472CBF01007CB6010014
:103CD0002DE9F04F2DED068B85B0B5EE400A149E10
:103CE0000196F1EE10FA179E029605460C46DDE9A4
:103CF00015EC189E05D1F5EE400AF1EE10FA00F031
:103D0000F1800F2BB8BF0F237C480393C3EB837163
:103D10000EEB4E080CEB4C0900EB880800EB890910
:103D2000890098ED001A98ED018AD8ED028AD9ED44
:103D3000002A99ED012AD9ED021A0F2A01F1040A8D
:103D4000A1F10400A1F10807B4EE600A04EB0A0B2C
:103D500004EB000304EB070904EB0108B8BF0F22D2
:103D6000F1EE10FA9BED004A93ED005A99ED003AFE
:103D7000D8ED004A20EE011A20EE088A60EE288A6B
:103D800060EEA22A20EE822A60EEA11A68D0002EF0
:103D9000D8BF002350DD029BC2EB827201F1080CF8
:103DA00004EB820203EB860EA444A146A846B7EEBC
:103DB000000A03E0F0EE444AB0EE634AB3EC017A45
:103DC000D2ED009AF9EC017A52ED016AD2ED015A76
:103DD00012ED029A92ED026AFCEC013A043227EEEF
:103DE000077A75EEA65A70EE476A36EE096A26EE35
:103DF00081AA26EE889AEAEE297A9E4566EEA86A9E
:103E0000E9EE257A62EE875AE6EE867A74EE056A66
:103E1000E5EEA47A22EE076A21EE877AE6EE267AAC
:103E200073EE836AB0EE453AE7EE267AB0EE645A56
:103E3000E8EC017ABED13346F5EE400AF1EE10FA15
:103E400015D1AC4249D0019BB0009A1B21189200B9
:103E5000284405B0BDEC068BBDE8F04F13F091BED1
:103E6000039B9A4293D1E64591D10026E3E7019A5C
:103E70009E003444D31A2744204404EB0A0204EB86
:103E8000010C002B97ED007A90ED006AD2ED006AEC
:103E90009CED005A21DD08313544214405EB8303B4
:103EA00003E0B0EE456AB0EE645AF4EC017AF1EC4E
:103EB000015AE2EE857A76EE864A35EE877AE2EEB0
:103EC000247AF0EE664AE1EE877AF0EE656AE5EC78
:103ED000017AAB42B0EE467AE3D105B0BDEC068B79
:103EE000BDE8F08F8142F8D0019B9A0005B0BDEC8F
:103EF000068BBDE8F04F13F044BE00BF9CBE01002E
:103F00002DE9F0418468002C20DD03EB420CD0F851
:103F100068E0076A04390CF1FF3C002604FB0CE45E
:103F2000B7F90080A55DB7F902404035A4EB08045D
:103F300003FB05F5944004FB05F4A41041F8044F7D
:103F400084680136B44207F10207E7DCBDE8F0817E
:103F5000C31D072B9DBF034BA3EB8000406A0248A3
:103F6000704700BF9CBE010038BF01000048704789
:103F700048BF01002DE9F04F85B000AFD7E90E949E
:103F8000B9F1010F7D6C79609A46C7F800D06DD009
:103F9000002D6ED192FBF9FE9300D91D21F007018F
:103FA000ADEB010DDFED515ADFED516AD7F840C09E
:103FB000FB6094ED006AC7F808D02B46A0F1040816
:103FC0004FEA8A044FEA890BB9F1010FFCEC017A40
:103FD00058F8041F2FDD002A0EDDFB68C818BB68E7
:103FE000B1EC017A37EE267A884277EE277AE3EC55
:103FF000017A66EE277AF3D14CED017ABEF1000F1B
:104000000FDDD7E9013003EB85010023D0ED007A05
:10401000013367EEA57A9E45C1ED007A58442144EC
:10402000F4D101230135AA45CEDCD7F800D01437EE
:10403000BD46BDE8F08F002A13DDF8680E187868D9
:1040400000EB8500B1EC017A37EE267A8E4277EEEE
:10405000277A27EEA57A66EE277A80ED007A20444B
:10406000F0D14CED017A002BDCD0C7E7022B8FD1C9
:104070002DB140F217121F491F48FFF7EFFD3B6CAF
:10408000D4ED004AD3ED006AD3ED017A002AD0E9DD
:10409000001022DD9FED165ADFED145A7B6801EB0C
:1040A0008202B1EC016AB0EC017A36EE056A37EEB5
:1040B000057A76EE266A77EE277A26EEA56A27EE4F
:1040C000A57A8A4283ED006A83ED017A64EEA66ADE
:1040D00064EEA77A03F10803E3D13B6CC3ED006AF9
:1040E000C3ED017AD7F800D0A1E700BF0000003887
:1040F0006042A20D04C0010018C001002DE9F04F7C
:1041000091B006AF8046D7F864C0C56A4068F861D0
:10411000D8F80800B86105FA0CF6D8F8240038621F
:10412000B000C41D24F00704ADEB040D7860934685
:10413000012006AA3A6100FA0CF2BA603A6E89468A
:104140009A46002A5AD13B6AA3EB0C03C7E9083010
:10415000FB6D022B354656D0012B00F0B080BB69B9
:104160007A6AC7F814909B003B603B69C7F818A0B7
:104170005E4603EB820B00234FEA8509FB6008F1E2
:10418000400AFB6E0493BB6E0393BB6802937B6D86
:1041900001933B6D0093D7E90421BB6940460BF0C6
:1041A00079FC7B6A002B15DD3C6900253B6F32688A
:1041B00003937B6A02933B6A0193FB6900932A4451
:1041C0002146D8F83C305046043402F0D7F8A345D5
:1041D0004D44EBD17A697968FB680A447A613968A1
:1041E000BA690A44BA61FA6D01339A42FB6006F17A
:1041F0000406C6DC2C37BD46BDE8F08FBB687B6289
:10420000FB6D022BA8D1BB6D012BA8D1FB6E0493D3
:10421000BB6E0393BB683E6902937B6D01933B6D5C
:10422000009349465346324640460BF033FCFB6947
:10423000DBF804407A6803EBD3735B1004EB830470
:104240002046314613F07CFC7B6A002BD2DD9B00BC
:104250004FEA850ABB61E51808F1400900263B6F6B
:10426000DBF8002003937B6A02933B6A0193FB69AE
:10427000009332442146D8F83C304846043402F0DA
:104280007DF8A5425644EAD13C69BB6923441D46EA
:1042900000263B6FDBF8042003937B6A02933B6AA2
:1042A0000193FB69009332442146D8F83C304846DC
:1042B000043402F063F8AC425644EAD19AE7BB6D8D
:1042C000022B7FF44CAFFB69FA6EDBF80040796D8E
:1042D000049203EBD373BA6E03925B10BA68019138
:1042E000396D0292009104EB83043A6953464946C2
:1042F00040460BF0CFFBFB6E0493BB6E03937B6DCC
:10430000BA6801933B6D029200937A68BB6909EB2E
:1043100002010AEB8303224640460BF0BBFB002E52
:1043200011DD7B681A463B69B6EE007A1A44F4EC5C
:10433000017AD3ED006A67EE877AE6EE877AE3ECDE
:10434000017A9A42F3D17B6A002B7FF753AF3C6925
:10435000AE0008F1400A04EB83054FF000093B6F03
:10436000DBF8002003937B6A02933B6A0193FB69AD
:1043700000934A442146D8F83C305046043401F0BA
:10438000FDFFAC42B144EAD134E700BF2DE9F04F64
:104390002DED068BADF58B5D87B003460AAFC1EB03
:1043A0008179F96553F85C1B86684D6839654FEA79
:1043B000890909F500598C68D1F820C0386703EBEA
:1043C0000901012E7E66FD649046C7F88410FB67E4
:1043D00005F5006B07DD03EB8B0202EB0901C7F863
:1043E0008020C7F88810396F7E6E486B78640BFBAD
:1043F00006F203EB8202054606EB460348697A673C
:1044000004EB440602EB4312042D3866BA644FEA0B
:10441000C60640F3D980FB6D7A6EC7F83CD003FB2B
:1044200002F23B6F92009D693B6D073222F007025A
:10443000DB68ADEB020D0AAAAB427A673A6EA8BF01
:104440002B469342B8BF13467B65F6EE006A914651
:10445000D7F864A0D7F848E00020A9451ADA04FB91
:1044600000F202EB09039B00A918F2180EEB810180
:1044700072447344F3EC017AB2EC017A77EEE67A97
:10448000F4EEC77AF1EE10FA40F19880994203ED0C
:10449000017AEFD1431C9A454FF00100DDDC3B6F00
:1044A000D3F828A07B6E002B48DD0023FB66BB659C
:1044B0003B6E0CEB43033B647B6D0CEB4303BB6631
:1044C0003B6E7A6D93422FDA3E6CB6F9005036F9A6
:1044D000024FFB6E641B04FA08F405FA08F51D444C
:1044E000002C4FEA850513DD7B6F4FF0000B03EBCB
:1044F000050950460BF0BCF9031507EE903A0BF195
:10450000010BF8EEE77A5C45E9EC017AF2D18246DC
:104510007B6F58193B6F21465A6AB7EE000A05F0C7
:1045200023FEBB6EB342D0D1FA6EF96DBB6D0A4467
:10453000FA667A6E01339A42BB65C1D1FB6DFA6CA3
:10454000D7F86490C3F5006404EB62043A6FA400EA
:10455000C2F828A09D00002607F17C03224653F8EC
:104560002600411913F00DFB731C99454FF001060D
:10457000F2DC3A6F0024536A089307941369069398
:10458000BB6C796F386DCDE904487C6ECDE902448F
:104590007C6D01943C6E009407F18402FFF7AEFD40
:1045A000D7F83CD07B6C3A6F07F58A570133143744
:1045B0005363BD46BDEC068BBDE8F08F994243EDD9
:1045C000017A7FF457AF65E73B6E2BB3FB6D7A6ED4
:1045D000396EC7F83CD003FB02F23B6F9D693B6D1F
:1045E000DB68AB42A8BF2B468B424FEA8202B8BFC2
:1045F0000B46073222F007027B657B6CADEB020DA8
:10460000002BF6EE006AF7EE087A0AAB7B6708BF6C
:10461000F0EE676A89461BE78B6B002BD6D14B6A9D
:10462000C7F824D03B64002D00F08E8107F1F00321
:104630007B65D1F830809FEDBF9A07F18C03FB6258
:104640004FEA4804B4F5806FF86C396D9FEDBAAA53
:10465000C96BB965A8BF4FF48064A50083006610DC
:10466000BD637D6DFE61DA1DC6F5007105EBC1010C
:1046700022F00702BD6B3C62ADEB020D0DF1280C80
:104680004FF0000AADEB050DFA6DC7F868A00DF10B
:10469000280AC7F834A001F1600A796DC7F850C044
:1046A000C2F50062C6F58366851801EB86063D6695
:1046B0003E61FD6DC7F814A007F58A561036C4EBAD
:1046C0008474054406EB8404FD66FC634FEA8B05A5
:1046D0003C6EBD643D6DDFED998ADFED999AA400D3
:1046E0001D44BC609400BA6D7D60FD6E3C6600EBBD
:1046F000D07C1344F86D3B63AB00BB618300FC606E
:10470000BB62C7F80090386C3E6FD7F82C904FEA28
:104710006C0BC8F5806A01F58354BB6E1A4607F12D
:104720007C0353F822507B6D05F57A6252F8041B26
:1047300043F8041B9C42F9D1BA6E530013447A6FBC
:1047400002EB43133B647B6C002B00F025811823A4
:10475000019000933B6A7A6BD7E90F0102F014FDD8
:10476000D7E90D12F86B13F0EBF9FB69002B40F35E
:104770008081D7E90432F7EE006AB0EE666AB3ECE6
:10478000017AF2EC017A07F58A5110319942A7EECD
:10479000076AE7EEA76AF2D1B4EEE66AF1EE10FA24
:1047A0004CBFC6EE267AC6EEA67A17EE900A16F031
:1047B000E9FA41EC100B14F0E7FB51EC100B16F08A
:1047C00011FEBB6A3A6E0AEE900AE918284613F009
:1047D000D8F9FB6E002B29EE2A7A40F35681FB6D47
:1047E0009FED588AC3F580603B6EE918BB6C50445E
:1047F00005EB030C00239845D8BFA3EB080307F58E
:104800008A5E03EB0A020EF1100E0EEB8202A2F595
:104810008052D2ED007AD8BF27EE2A7A1A1867EEB6
:10482000877A05EB8202E1EC017AD2ED007A8C45C1
:1048300003F10103A7EEA78ADDD1FB6807F1EC00C5
:10484000EA184B4652F8041D43F8041B9842F9D16C
:104850003B68EA18736A02931823396CCDF8049008
:104860000093FB6E104602F0BFFDFB6E002B40F381
:1048700003813B6EBA6C9FED337AE8180346AA18A1
:10488000F3EC017A9A42A7EEA77AF9D167EE297A7A
:10489000F4EEC87AF1EE10FA46D5B4EEC87AF1EE2D
:1048A00010FA00F3A780F06CD6ED110AF36B726A70
:1048B0000592CDE901000020CDE90300F86C0090DD
:1048C000F1EE600A05F50055386DB0EE600A294634
:1048D0001A46FFF7FDF9F86C012816DDD7F850C02D
:1048E000386B7968BA6D0023FCEC017A30ED016A0F
:1048F000F2EC016A31ED017A67EE867A0133E6EE79
:10490000877A9B45E5EC017AEEDCBB6E7A6E002B74
:104910000CBF012302239A4203DD0123706ABB66A8
:10492000FBE6D7F824D03DE6BA69002113F043F93D
:10493000B9E700BFCDCC4C3F4703803FBE37863838
:10494000CDCC4C3E000000001C4607F1F0037B6517
:1049500007F18C05009419461E464FF400627B6EE9
:10496000FD6207F17C0001F075FF31464FF41B73C7
:104970004FF4A6620194009507F5D26002F092F818
:104980003A6FD7F88C30516A3964C3F53478C2F87D
:104990003080B7EE009A53E64FF480631822CDE9D9
:1049A00000230290FB6CBA6D494607F5A87002F02F
:1049B0009FFED9ED007A67EE8A7A07F19002C9ED81
:1049C000007A0123D2ED007A07EE103AF8EEC76ABA
:1049D00027EEA87A013327EE267A192BE6EEC77A5E
:1049E000E2EC017AEED1386C1822494602F05CFB09
:1049F000706AACE6F7EE00AA37EE2A7A38EE2A8A19
:104A0000C8EE077A17EE900A16F0BCF941EC100BCD
:104A100014F0BAFA51EC100B16F0E4FCFB6C002B0E
:104A200007EE100A13DD3B6E7AEEC76AEA18BB6D1B
:104A3000F3EC017A92ED006A396BF0EE6A5AE7EE18
:104A4000E65A994265EE867AE2EC017AF0D1FB6C87
:104A5000FA6E9342BFF627AFBB68BA6CEB18AA1880
:104A6000D3ED007A67EE877AE3EC017A9A42F7D1C8
:104A700019E7002006499CE6B5EEC08AF1EE10FA6F
:104A80007FF711AF9FED037A07E79FED028AD4E627
:104A90000000F03F0000000038B5044600224FF44B
:104AA00070714BF68030256801F038FD854240F08A
:104AB00087806368782B7ED1A368013B012B00F2CD
:104AC0009380E368013B012B00F289802369002B6E
:104AD00040F38F8063692BBBA26993424DDA152A9C
:104AE0005FDC636A002B57DB51D1236BB3F5347F56
:104AF00048DC632B1DDDE36BB3F5806F38DA0E2BDA
:104B00001EDD236CB3F5806F28DA0E2B1FDDE36CFE
:104B1000022B4BDC002B26DB236D022B5ADC002BF7
:104B200053DB38BD112BD7D07C2234493448FFF7F2
:104B300095F8002BDFD0842230493248FFF78EF8F9
:104B4000002BDED086222D492F48FFF787F8002B57
:104B5000DDD0882229492D48FFF780F88722274990
:104B60002B48FFF77BF88A2224492A48FFF776F87A
:104B7000852222492848FFF771F87D221F492748DE
:104B8000FFF76CF883221D492548FFF767F881225B
:104B90001A492448FFF762F8802218492248FFF793
:104BA0005DF87E2215492148FFF758F889221349FC
:104BB0001F48FFF753F8772210491E48FFF74EF8B9
:104BC00076220E491C48FFF749F88C220B491B48F6
:104BD000FFF744F88B2209491948FFF73FF87A227A
:104BE00006491848FFF73AF8792204491648FFF7B2
:104BF00035F87B2201491548FFF730F804C0010061
:104C0000CCC0010084C1010018C20100B4C201007F
:104C100078C201004CC30100E0C1010000C10100E5
:104C200048C101009CBD01007CBD010028C10100FC
:104C30001CC301007CC0010034C00100B0C30100EE
:104C40007CC30100C8BD010030BA0100A4C001004E
:104C500010B5002204464FF470714BF6803001F01D
:104C60005DFC04EB4403D0E90102DB00173303EBE6
:104C7000C20300F5006004FB0030800010BD00BFDF
:104C80002DE9F04F2DED028BC9B014AF8146FB63C7
:104C900083687B650026C3687A648A467B67D7E9A8
:104CA0004054C7E92166FFF7F7FED9F80030D9F87C
:104CB000100099685A683966196ABA64B9615A6A03
:104CC000D9F81410B966D9F81810B967B24200FBC8
:104CD00005F1FB653963B86C12DB00F50068D86A32
:104CE0003865814209F15C0500F0698533460E465E
:104CF00001E0B1420CD00133934200FA03F1F8DD38
:104D00004FF0FF30D437BD46BDEC028BBDE8F08FCD
:104D10001A46FB67012393403B603B6B3B657A6C13
:104D200040F2FB439A42EBD8FB6B002BE8D03B6D83
:104D3000C7F89050C3EB83739B0003F50053EA1848
:104D4000C7F898207A6D012A06DD05EB8802134426
:104D5000C7F89C30C7F89420BAF1000F00F0B18377
:104D60007B6C012B40F3AD83D9F83430FA6D0033FE
:104D7000D2683A6118BF0123C9F83830002C00F01E
:104D8000C9847A6D02EB420302FB08F85B0103EB76
:104D90008803EB187B667B6F012B3B6E00F04B8426
:104DA0009B007B61E3696269B3FA83F67B6CC6F1B1
:104DB0002006DB00961BB3423B6400F3FA83012319
:104DC000FB623B6C9E1B324462611E46BB6E002B35
:104DD00040F0DA833A6C06F10F039342C0F2A484E8
:104DE000BB6E9FEDAD8AC7E90733FB6F0236002B20
:104DF00000F0D4833B6CB34200F378840020F86465
:104E0000B860FB6F03937B6F0090CDE901437B6E2D
:104E1000BA6FB96EF86D03F0CFF97869E36962692A
:104E2000C7F80CD0073020F00705B3FA83F3C3F1BD
:104E30002003ADEB050DB863D01A14AB61687B633A
:104E4000FB6C02464FEAC10B002B40F08F83FD6FD5
:104E500004231946002D00F08F83013003449B4545
:104E600034BF00230123FB66ABEB030BB86FBB6EB3
:104E7000834280F2C584FB6CBD6EC7F85890002B4E
:104E800014BF042005207B6BC7F8044105F1804660
:104E900081468818013E4FF0000A834503EB8606E1
:104EA0005446BB6FD7F8048108D20135AB4246F8AF
:104EB000044F1ADD494688188345F6D340463B67C0
:104EC00000F016FFD8F81C203B6FD8F81410B2FA87
:104ED00082F201354440C2F12002AB424AEA040AA0
:104EE00046F8044FA1EB0202E4DCD7F858904446A0
:104EF000FB6E8BB1FB6F694A02EBC30202EB0A0B3C
:104F0000FA6C0BEB82031BF9222093F902309A42D0
:104F100040F0BC830023FB66E3696069BD6FB3FAB0
:104F200083F3C3F12003C01ABB6EAB4280F210843E
:104F3000FE6CF96E594A01EB4601FE6F02EBC60C9E
:104F40007E6B03F18043013B06EB85050CEB4101D1
:104F500006EB8303043D53F8042F8A561A609D42E2
:104F6000F9D13B6C0330DA008342BA6200F3A083CC
:104F7000BB6BFA6FF86D23F00705ADEB050D14ABB5
:104F800019467B627B6FFEF7BBFFADEB050D20463C
:104F900000F0B0FD14ABBB6502237B60BB69BE6A49
:104FA000C7F818901946BB6E01EB4302FA667A6A9D
:104FB0001146062201EB83083A679A46FA6E1346B9
:104FC000B2F90210B3F90030C91A7B6F03FB01F18B
:104FD000FB6F023299403029FA663A6F0B46B8BF30
:104FE0003023C9008B4200EBC205A8BF0B46AE427E
:104FF0009B4640F36082D8F80010002940F35B82A2
:105000001146002508E0A6EB0B06B3425D4410DA1A
:10501000D8F80030AB420CDD204600F069FE814636
:10502000204600F067FD012100F10803B9F1000FEF
:10503000E9D1BB6D002D43F82A5005DD3B6F032BF2
:10504000B8BF0323013B3B67BB6F0AF1010A53451D
:1050500008F10408B2DCD7F81890BB6B23F0070303
:105060002F30ADEB030D14ABB042FB66C0F2FE82F5
:105070000526204600F03EFDBB6A013B181AFB6C7A
:105080007BB1FB6F012B0BDD0233B0EBC30F07DBF2
:1050900008230838BB6205E000000000E0BE010004
:1050A0000023BB62BB6B23F00703ADEB030D14AA17
:1050B000ADEB030DBA63BB6D0B94FA6F0A927A6F76
:1050C0000992FA6E0792BA6B049014A8069207F13F
:1050D000840EB86107F18801019600257E6A00966A
:1050E000CDE902E1CDE90D5507F18C0CCDF814C0E6
:1050F00008900C95D7F878B0D7F868A0FE6D5A469E
:105100005146304603F0A2FA7B6FCDE90143FB6EB6
:1051100000935A467B6E51468046304603F06EF946
:105120003A6DBB6CD7F854B0C2F5006603EBD3738D
:1051300006EB6306B6004FEA820A07F1D00303EBE1
:105140008503324653F8400C00EB0A0112F019FDBA
:105150006B1C9B454FF00105EFDC3B6E796F1A46E7
:105160003B6D02FB01F01A460B4602FB03F39B006A
:10517000C21D22F007020733ADEB020D23F0070337
:1051800014AAADEB030DD9F82030BA6578621293FA
:10519000D9F824301193CDF838800229F96F4FF0F7
:1051A000000009F12803CDE90F30CDE90C41B96ABF
:1051B0007D6CC1EB8513D7F88C10CDE90A317D6B7E
:1051C0000995D7F884300893D7F8883007933D6E57
:1051D00003904FEAC50B7D680695BD680595BD6BCC
:1051E0000495BB6D14AE0CBF06EB0A020022CDE99C
:1051F000012300967D6EF96DBB6FBA6E05EB0B0C4B
:10520000C7F870C00CEB0B080AF080FFB96A0029E0
:1052100040F0D5817B6FE269CDE90343B2FA82F2B7
:105220006369B9690191C2F120029B1A3A6CD31AE1
:105230000293FB6E00937B6EBA6FB96EF86D03F04C
:1052400035F9FB6A53B1796A002907DD7B6EC54ADF
:1052500003EB810143F8042B9942FBD1D9F82430A8
:105260000893FB6A07933B69BA6F9342A8BF134642
:10527000D9F8102006920193FB6F0593FB6C049301
:105280007B6D03937B6F0293BB6E00933146FE6D83
:105290007B6E07F198023046FEF730FF0025D9E912
:1052A0000F3207F1D0010F2BB8BF0F2301EB850A96
:1052B0000F2AD9F824005AF8381CD9ED110A99EDB3
:1052C000120AB8BF0F22C9E90F320590B86C0490DA
:1052D000F06B0390D9F84C000290D9F8500001907F
:1052E000F06A00900846FEF7F3FCFB6F002B40F0DD
:1052F000C3807A6D6B1C9A424FF00105CFDCD9F860
:105300004430D9F83C20C9F84830F96FD9F84C300E
:10531000C9F84020C9F85030FA693B6A89ED118A12
:10532000C9F83C20C9F84C3029B1C9F8402089EDB2
:10533000128AC9F850307B6F012B05D17B6E7A69D8
:105340001946981812F0FCFB3B6E5D00FB6C002BBD
:1053500000F0DC80002D0EDD3B6F7A6EB3EC017A3D
:10536000F2EC017AF4EEC77AF1EE10FA74DD9845AA
:1053700003ED017AF2D1BB6E002B40F307820023CC
:1053800018467A6EDFF8DCC1D7F868A09900561885
:105390003A6F08EB01054FF0000E11440022013274
:1053A000924546F804EB45F804CB41F804CBF6DC13
:1053B0003A6EB96F8A4217DDB96FD7F860E0CA1844
:1053C0007B6E92009E183B6F08EB02051A440B4659
:1053D00064494FF0000C01339E4546F804CB45F874
:1053E000041B42F8041BF6DC00283BD0FA6DE3698D
:1053F000C9F8283010320192D7F8082109F1540376
:10540000CDE90232D9F810300093D7E91423F96BB3
:1054100007F19800FEF7AEFDE3696269B3FA83F322
:10542000C3F12003D31A0022C9F834203A6C9A42FF
:10543000C0F21981E36A13B10123C9F82C30D9F8FD
:1054400010003B6B93FBF0F0D7F80CD0D437BD467F
:10545000BDEC028BBDE8F08F984543ED017A7FF4F7
:105460007DAF88E7BA6E3B6E002A4FF0010088DC02
:10547000B96F8B42A0DCB9E7D9F82400F36A5AF877
:10548000381C99ED110AD9F83C200590B86C0490AD
:10549000F06B0390386A0290386D01EB8301C31AF8
:1054A000D9F84C00CDE90030F0EE480A0846FB6917
:1054B000FEF70EFC1DE7BB6D1A46002342F82A30AA
:1054C000C2E53C6DFA6F21464846FEF75FFFFB6D73
:1054D00010331A460192D7F8081109F15403CDE9A7
:1054E0000231D9F8103000937B6DF96B07F1980009
:1054F0002246FEF73FFD3B6BD9F8100093FBF0F01E
:10550000D437BD46BDEC028BBDE8F08F3E6F5A46E6
:105510003146404612F014FB5A46796E304612F07E
:105520000FFBD9F83430092B40F3A780F7EE006A5F
:10553000002D7FF720AFD7E91823C34408EB0212F0
:10554000FBEC017AB3EC017A76EEA77AF4EEC77A37
:10555000F1EE10FA40F1A0805A454BED017AEFD1FF
:1055600009E700BF0000E0C100000000FD6F02235A
:105570001946002D7FF471ACBB6EBD6FAB4280F25B
:10558000E780FB6FFB6676E40023C7E90733FB6F18
:105590001FED0B8A0236002B7FF42CACFB64BB6042
:1055A0003B6CB34240F39F800321204600F0A0FBF8
:1055B00027E4012E00F0F2800023FB6206E40121C3
:1055C000204600F03BFD8246786FE269CDE903405A
:1055D000B2FA82F26369B8690190C2F120029B1AA3
:1055E0003A6CD31A0293FA6E00927B6EBA6FB96E60
:1055F000F86D02F05BFFBAF1000F3FF422AED9F86C
:1056000024300993D9F828300893BB6BBA6DCDE9E3
:1056100006833D6F05957D6E0495BB6F0393BB6E4E
:1056200002933B6D01937D6F0095FB6FF86D3146E2
:105630000AF0DAFA05E6002B7FF7B2AB9B001A46B8
:105640007B617B6E9A181146B3EC017AF2EC017A19
:10565000F4EEC77AF1EE10FA24D5994203ED017AFF
:10566000F2D1FFF79FBB6FF00200EDE607228349FE
:10567000204600F08FFB0646FBE4D7ED007AF8EEFB
:10568000E76ADFED7F7A66EEA76A51E701212046DF
:1056900000F02EFBF8663FE45A450BED017A7FF4EB
:1056A0004FAF68E6994243ED017ACDD1FFF77ABB5F
:1056B000BB6B74490522204623F0070500F06AFB06
:1056C000ADEB050D14AB194678607B62FA6F7B6F0A
:1056D000F86DFEF715FCADEB050D204600F00AFA5B
:1056E00014ABBB655AE40020FFF78BBB03212046B7
:1056F00000F0FEFAE2696369F864B2FA82F6C6F174
:1057000020069E1B0236034600283FF448AF3B6844
:10571000BB6045E7514607F1A0007A6C00F006FA3D
:1057200007F1A004FFF72DBB0121204600F0E0FAAD
:10573000F861002868D1E36966699FED538AB3FA7E
:1057400083F3C3F12003F61ABB6E3B62FFF74DBB38
:105750003B6C033098424FEAC30635DBBB6BFA6FF4
:10576000F86D23F00705ADEB050D14AB19467B6210
:105770007B6FFEF7C5FBADEB050D204600F0BAF9D7
:1057800014ABBB650223BE627B6066E43B6EBA6FFE
:1057900093427FF72BAE002318460DE60F212046DB
:1057A00000F0A6FAF86200283FF410ABE3696269E2
:1057B000B3FA83F6C6F12006961BFFF702BB01235E
:1057C000FE673B60FFF7ABBABB6B2E490522204654
:1057D00023F0070500F0DEFAADEB050D14AB19461A
:1057E00078607B62FA6F7B6FF86DFEF789FBADEB3B
:1057F000050D204600F07EF914ABBB65BE622CE4BB
:105800004FF0000AFFF774BB0621204600F016FB9C
:105810000546011D204600F011FC1023421EAB403E
:10582000134403212046FB6100F008FCE369626930
:10583000B3FA83F3C3F12003D61A3A6C731C934274
:1058400005460CDBBB6E3B626B1C08EE103ADFEDCD
:105850000F7AB8EEC88A28EE278AFFF7C6BA022266
:105860000B49204600F096FAE36962693862B3FAA0
:1058700083F3C3F12003D61AE6E700BFF4BF0100AB
:105880006F12833A00C00100000000000000C03D1C
:10589000F0BF01000EB4F0B582B007AA40F6CF7198
:1058A00052F8043B01928B42044600F0BB80B3F5F2
:1058B0007D6F1BDB42F21A718B4200F084802EDD7B
:1058C00042F21F718B4200F0898042F220718B42BC
:1058D00000F08C8042F21C718B4200F08A806FF0E5
:1058E000040002B0BDE8F04003B0704740F6BF715D
:1058F0008B4200F08980B3F57C6F27DB40F6C171E5
:105900008B4200F0888040F6CE718B42E7D113685D
:105910000432012B019200F29F80036210E042F2F8
:1059200017718B4200F08F8042F218718B42D6D1F2
:105930001368591E04320129019200F28D80C36060
:10594000002002B0BDE8F04003B0704740F6BB71E4
:105950008B426ED040F6BC729342C0D1054680683F
:1059600055F85C7B6168D7E90123DE0000EB40035A
:1059700006EBC30C0CF1170C02F5006200FB02C22F
:1059800001F5006100FB01F006EB4313920003EB0D
:105990008003283A002104F128001D4412F00BF97D
:1059A000B8684300002B0BDD06EBC0002C492A46EB
:1059B000AB19284443F8041B834242F8041BF9D175
:1059C0000123A363BCE713680432002B019243DB7D
:1059D000026892689A423FDD4361B1E7136804327E
:1059E0000192002B38D002681A60A9E71368C361DE
:1059F000A6E713680432002B01922DDD026892683D
:105A00009A4229DB83619BE71368043201921BB33E
:105A1000826A1A6094E7136804320192E3B1C26BA0
:105A20001A608DE7089B04320192ABB1026A1A60DA
:105A300086E711680432019271B14368026993FBF1
:105A4000F2F30B607CE713680432019223B1C26A5F
:105A50001A600023C36273E74FF0FF3041E700BFD5
:105A60000000E0C1F8B5154604460F4600224FF489
:105A700070714BF6803000F051FD022D34D8002CAF
:105A800035D0D0E9013105EB4502D200173203F5DC
:105A9000006302EBC102064605FB032292000021CF
:105AA000204612F088F87068F1682660A5F10106BA
:105AB000B6FA86F6012200237609636163626060AC
:105AC000A1612261E26140F6BC71C4E9025526621F
:105AD0002046FFF7DFFE3846FEF7D2F8B0FA80F333
